{
  "contractName": "MyContract",
  "abi": [
    {
      "constant": true,
      "inputs": [
        {
          "name": "",
          "type": "uint256"
        }
      ],
      "name": "historiesIds",
      "outputs": [
        {
          "name": "",
          "type": "uint256"
        }
      ],
      "payable": false,
      "stateMutability": "view",
      "type": "function"
    },
    {
      "constant": true,
      "inputs": [
        {
          "name": "",
          "type": "uint256"
        }
      ],
      "name": "stagesIds",
      "outputs": [
        {
          "name": "",
          "type": "uint256"
        }
      ],
      "payable": false,
      "stateMutability": "view",
      "type": "function"
    },
    {
      "constant": true,
      "inputs": [
        {
          "name": "",
          "type": "uint256"
        }
      ],
      "name": "veiculosInHistory",
      "outputs": [
        {
          "name": "",
          "type": "uint256"
        }
      ],
      "payable": false,
      "stateMutability": "view",
      "type": "function"
    },
    {
      "constant": true,
      "inputs": [
        {
          "name": "",
          "type": "uint256"
        }
      ],
      "name": "veiculosIds",
      "outputs": [
        {
          "name": "",
          "type": "uint256"
        }
      ],
      "payable": false,
      "stateMutability": "view",
      "type": "function"
    },
    {
      "anonymous": false,
      "inputs": [
        {
          "indexed": false,
          "name": "_addr",
          "type": "address"
        },
        {
          "indexed": false,
          "name": "newEmail",
          "type": "string"
        }
      ],
      "name": "userRegisted",
      "type": "event"
    },
    {
      "anonymous": false,
      "inputs": [
        {
          "indexed": false,
          "name": "id",
          "type": "uint256"
        }
      ],
      "name": "veiculoRegistered",
      "type": "event"
    },
    {
      "anonymous": false,
      "inputs": [
        {
          "indexed": false,
          "name": "",
          "type": "uint256[]"
        }
      ],
      "name": "StageRegistered",
      "type": "event"
    },
    {
      "anonymous": false,
      "inputs": [
        {
          "indexed": false,
          "name": "_msg",
          "type": "string"
        }
      ],
      "name": "historyRegistered",
      "type": "event"
    },
    {
      "anonymous": false,
      "inputs": [
        {
          "indexed": false,
          "name": "_veiculoId",
          "type": "uint256"
        },
        {
          "indexed": false,
          "name": "_msg",
          "type": "string"
        }
      ],
      "name": "veiculoUpdated",
      "type": "event"
    },
    {
      "anonymous": false,
      "inputs": [
        {
          "indexed": false,
          "name": "_clienteAddr",
          "type": "address"
        },
        {
          "indexed": false,
          "name": "_msg",
          "type": "string"
        }
      ],
      "name": "clienteUpdated",
      "type": "event"
    },
    {
      "constant": false,
      "inputs": [
        {
          "name": "_addr",
          "type": "address"
        },
        {
          "name": "_email",
          "type": "string"
        }
      ],
      "name": "setUser",
      "outputs": [],
      "payable": false,
      "stateMutability": "nonpayable",
      "type": "function"
    },
    {
      "constant": true,
      "inputs": [
        {
          "name": "_addr",
          "type": "address"
        }
      ],
      "name": "getUser",
      "outputs": [
        {
          "name": "",
          "type": "string"
        }
      ],
      "payable": false,
      "stateMutability": "view",
      "type": "function"
    },
    {
      "constant": false,
      "inputs": [
        {
          "name": "_desc",
          "type": "string"
        },
        {
          "name": "_placa",
          "type": "string"
        },
        {
          "name": "_price",
          "type": "uint256"
        }
      ],
      "name": "addVeiculo",
      "outputs": [],
      "payable": false,
      "stateMutability": "nonpayable",
      "type": "function"
    },
    {
      "constant": false,
      "inputs": [
        {
          "name": "_veiculoId",
          "type": "uint256"
        },
        {
          "name": "_newDesc",
          "type": "string"
        },
        {
          "name": "_newPlaca",
          "type": "string"
        },
        {
          "name": "_newPrice",
          "type": "uint256"
        }
      ],
      "name": "updateVeiculo",
      "outputs": [],
      "payable": false,
      "stateMutability": "nonpayable",
      "type": "function"
    },
    {
      "constant": false,
      "inputs": [
        {
          "name": "_clienteAddr",
          "type": "address"
        },
        {
          "name": "_newNome",
          "type": "string"
        },
        {
          "name": "_newEmail",
          "type": "string"
        },
        {
          "name": "_newCpf",
          "type": "uint256"
        },
        {
          "name": "_newEndereco",
          "type": "string"
        }
      ],
      "name": "updateCliente",
      "outputs": [],
      "payable": false,
      "stateMutability": "nonpayable",
      "type": "function"
    },
    {
      "constant": true,
      "inputs": [
        {
          "name": "_id",
          "type": "uint256"
        }
      ],
      "name": "veiculoInfo",
      "outputs": [
        {
          "name": "",
          "type": "uint256"
        },
        {
          "name": "",
          "type": "string"
        },
        {
          "name": "",
          "type": "string"
        },
        {
          "name": "",
          "type": "address"
        },
        {
          "name": "",
          "type": "uint256"
        }
      ],
      "payable": false,
      "stateMutability": "view",
      "type": "function"
    },
    {
      "constant": true,
      "inputs": [],
      "name": "clienteInfo",
      "outputs": [
        {
          "name": "",
          "type": "string"
        },
        {
          "name": "",
          "type": "string"
        },
        {
          "name": "",
          "type": "uint256"
        },
        {
          "name": "",
          "type": "string"
        }
      ],
      "payable": false,
      "stateMutability": "view",
      "type": "function"
    },
    {
      "constant": true,
      "inputs": [],
      "name": "getVeiculos",
      "outputs": [
        {
          "name": "",
          "type": "uint256[]"
        },
        {
          "name": "",
          "type": "string[]"
        },
        {
          "name": "",
          "type": "string[]"
        },
        {
          "name": "",
          "type": "address[]"
        },
        {
          "name": "",
          "type": "uint256[]"
        }
      ],
      "payable": false,
      "stateMutability": "view",
      "type": "function"
    },
    {
      "constant": true,
      "inputs": [
        {
          "name": "_id",
          "type": "uint256"
        }
      ],
      "name": "isVeiculoInHistory",
      "outputs": [
        {
          "name": "",
          "type": "bool"
        }
      ],
      "payable": false,
      "stateMutability": "view",
      "type": "function"
    },
    {
      "constant": false,
      "inputs": [
        {
          "name": "_veiculoId",
          "type": "uint256"
        },
        {
          "name": "_stageDesc",
          "type": "string[]"
        },
        {
          "name": "_dates",
          "type": "string[]"
        }
      ],
      "name": "addNewHistory",
      "outputs": [],
      "payable": false,
      "stateMutability": "nonpayable",
      "type": "function"
    },
    {
      "constant": false,
      "inputs": [
        {
          "name": "_veiculoId",
          "type": "uint256"
        },
        {
          "name": "_stageDesc",
          "type": "string[]"
        },
        {
          "name": "_dates",
          "type": "string[]"
        }
      ],
      "name": "addToHistory",
      "outputs": [
        {
          "name": "",
          "type": "bool"
        }
      ],
      "payable": false,
      "stateMutability": "nonpayable",
      "type": "function"
    },
    {
      "constant": true,
      "inputs": [
        {
          "name": "_id",
          "type": "uint256"
        }
      ],
      "name": "HistoryInfo",
      "outputs": [
        {
          "name": "",
          "type": "uint256"
        },
        {
          "name": "",
          "type": "string[]"
        },
        {
          "name": "",
          "type": "string[]"
        },
        {
          "name": "",
          "type": "address"
        }
      ],
      "payable": false,
      "stateMutability": "view",
      "type": "function"
    },
    {
      "constant": true,
      "inputs": [],
      "name": "getHistories",
      "outputs": [
        {
          "name": "",
          "type": "string[]"
        },
        {
          "name": "",
          "type": "string[][]"
        },
        {
          "name": "",
          "type": "string[][]"
        },
        {
          "name": "",
          "type": "address[]"
        }
      ],
      "payable": false,
      "stateMutability": "view",
      "type": "function"
    },
    {
      "constant": false,
      "inputs": [
        {
          "name": "_veiculosIds",
          "type": "uint256[]"
        },
        {
          "name": "_stageDesc",
          "type": "string"
        }
      ],
      "name": "addToStage",
      "outputs": [],
      "payable": false,
      "stateMutability": "nonpayable",
      "type": "function"
    },
    {
      "constant": true,
      "inputs": [
        {
          "name": "_id",
          "type": "uint256"
        }
      ],
      "name": "stageInfo",
      "outputs": [
        {
          "name": "",
          "type": "uint256"
        },
        {
          "name": "",
          "type": "uint256[]"
        },
        {
          "name": "",
          "type": "string"
        },
        {
          "name": "",
          "type": "address"
        }
      ],
      "payable": false,
      "stateMutability": "view",
      "type": "function"
    },
    {
      "constant": true,
      "inputs": [],
      "name": "getStages",
      "outputs": [
        {
          "name": "",
          "type": "uint256[]"
        },
        {
          "name": "",
          "type": "uint256[][]"
        },
        {
          "name": "",
          "type": "string[]"
        },
        {
          "name": "",
          "type": "address[]"
        }
      ],
      "payable": false,
      "stateMutability": "view",
      "type": "function"
    }
  ],
  "bytecode": "0x6080604052600060085560006009556000600a5534801561001f57600080fd5b506139d48061002f6000396000f3fe608060405260043610610112576000357c0100000000000000000000000000000000000000000000000000000000900463ffffffff168063243af1931461011757806326a5bea3146101575780632a0e7b6214610180578063362342e4146101ae5780633d4b884e146101eb5780633f1a51b81461021a5780635a7b52c5146102435780635cc4da2d1461026c5780635fd08212146102955780636f77926b146102d257806379655bd01461030f57806384d5f4241461033d578063a2c0fb2414610366578063ab66c9df146103a3578063aca8e5d7146103e0578063b921546714610421578063d73dde671461044f578063d9db17de1461048c578063e63007fb146104cc578063f6881ca6146104f5575b600080fd5b34801561012357600080fd5b5061013e60048036036101399190810190612a33565b610532565b60405161014e9493929190613613565b60405180910390f35b34801561016357600080fd5b5061017e60048036036101799190810190612adb565b61072d565b005b34801561018c57600080fd5b50610195610848565b6040516101a59493929190613254565b60405180910390f35b3480156101ba57600080fd5b506101d560048036036101d09190810190612a33565b610ae2565b6040516101e291906135a5565b60405180910390f35b3480156101f757600080fd5b50610200610b05565b604051610211959493929190613338565b60405180910390f35b34801561022657600080fd5b50610241600480360361023c9190810190612835565b610d72565b005b34801561024f57600080fd5b5061026a60048036036102659190810190612889565b610e0a565b005b34801561027857600080fd5b50610293600480360361028e91908101906129b4565b610ee0565b005b3480156102a157600080fd5b506102bc60048036036102b79190810190612a33565b61111d565b6040516102c991906133ae565b60405180910390f35b3480156102de57600080fd5b506102f960048036036102f4919081019061280c565b611175565b60405161030691906133c9565b60405180910390f35b34801561031b57600080fd5b506103246113c9565b60405161033494939291906132d7565b60405180910390f35b34801561034957600080fd5b50610364600480360361035f9190810190612a5c565b6115df565b005b34801561037257600080fd5b5061038d60048036036103889190810190612a33565b611807565b60405161039a91906135a5565b60405180910390f35b3480156103af57600080fd5b506103ca60048036036103c59190810190612a33565b61182a565b6040516103d791906135a5565b60405180910390f35b3480156103ec57600080fd5b5061040760048036036104029190810190612a33565b61184d565b604051610418959493929190613666565b60405180910390f35b34801561042d57600080fd5b50610436611ad6565b60405161044694939291906133eb565b60405180910390f35b34801561045b57600080fd5b5061047660048036036104719190810190612a33565b611d4e565b60405161048391906135a5565b60405180910390f35b34801561049857600080fd5b506104b360048036036104ae9190810190612a33565b611d71565b6040516104c394939291906135c0565b60405180910390f35b3480156104d857600080fd5b506104f360048036036104ee9190810190612948565b612044565b005b34801561050157600080fd5b5061051c60048036036105179190810190612a5c565b6121e3565b60405161052991906133ae565b60405180910390f35b600060608060006009548511151515610580576040517f08c379a0000000000000000000000000000000000000000000000000000000008152600401610577906134c5565b60405180910390fd5b61058861230a565b6002600087815260200190815260200160002060806040519081016040529081600082015481526020016001820180548060200260200160405190810160405280929190818152602001828054801561060057602002820191906000526020600020905b8154815260200190600101908083116105ec575b50505050508152602001600282018054600181600116156101000203166002900480601f0160208091040260200160405190810160405280929190818152602001828054600181600116156101000203166002900480156106a25780601f10610677576101008083540402835291602001916106a2565b820191906000526020600020905b81548152906001019060200180831161068557829003601f168201915b505050505081526020016003820160009054906101000a900473ffffffffffffffffffffffffffffffffffffffff1673ffffffffffffffffffffffffffffffffffffffff1673ffffffffffffffffffffffffffffffffffffffff1681525050905080600001518160200151826040015183606001518292508191509450945094509450509193509193565b6001835110151515610774576040517f08c379a000000000000000000000000000000000000000000000000000000000815260040161076b90613465565b60405180910390fd5b6000811115156107b9576040517f08c379a00000000000000000000000000000000000000000000000000000000081526004016107b090613445565b60405180910390fd5b60008060008681526020019081526020016000209050838160010190805190602001906107e7929190612349565b5082816002019080519060200190610800929190612349565b508181600301819055507f937217186868c1a541fadea8f46b340a73fe8f15e5e8a5413dead4224c64b5b98560405161083991906136c7565b60405180910390a15050505050565b6060806060806060600580548060200260200160405190810160405280929190818152602001828054801561089c57602002820191906000526020600020905b815481526020019060010190808311610888575b50505050509050606081516040519080825280602002602001820160405280156108d55781602001602082028038833980820191505090505b5090506060825160405190808252806020026020018201604052801561090f57816020015b60608152602001906001900390816108fa5790505b5090506060835160405190808252806020026020018201604052801561094957816020015b60608152602001906001900390816109345790505b5090506060845160405190808252806020026020018201604052801561098357816020015b606081526020019060019003908161096e5790505b509050606085516040519080825280602002602001820160405280156109b85781602001602082028038833980820191505090505b50905060008090505b8651811015610ac9576109d381611d71565b82925081915089858151811015156109e757fe5b90602001906020020188868151811015156109fe57fe5b9060200190602002018887815181101515610a1557fe5b9060200190602002018888815181101515610a2c57fe5b9060200190602002018473ffffffffffffffffffffffffffffffffffffffff1673ffffffffffffffffffffffffffffffffffffffff168152508490528490528481525050505050610a938682815181101515610a8457fe5b9060200190602002015161184d565b90919293508393509091509050508582815181101515610aaf57fe5b9060200190602002018190525080806001019150506109c1565b5083838383995099509950995050505050505090919293565b600581815481101515610af157fe5b906000526020600020016000915090505481565b6060806060806060806001805480602002602001604051908101604052809291908181526020018280548015610b5a57602002820191906000526020600020905b815481526020019060010190808311610b46575b5050505050905060608151604051908082528060200260200182016040528015610b935781602001602082028038833980820191505090505b50905060608251604051908082528060200260200182016040528015610bcd57816020015b6060815260200190600190039081610bb85790505b50905060608351604051908082528060200260200182016040528015610c0757816020015b6060815260200190600190039081610bf25790505b50905060608451604051908082528060200260200182016040528015610c3c5781602001602082028038833980820191505090505b50905060608551604051908082528060200260200182016040528015610c715781602001602082028038833980820191505090505b50905060008090505b8651811015610d5557610c8c8161184d565b8393508292508a86815181101515610ca057fe5b9060200190602002018a87815181101515610cb757fe5b9060200190602002018a88815181101515610cce57fe5b9060200190602002018a89815181101515610ce557fe5b9060200190602002018a8a815181101515610cfc57fe5b906020019060200201858152508573ffffffffffffffffffffffffffffffffffffffff1673ffffffffffffffffffffffffffffffffffffffff168152508590528590528581525050505050508080600101915050610c7a565b5084848484849a509a509a509a509a505050505050509091929394565b6000600760008473ffffffffffffffffffffffffffffffffffffffff1673ffffffffffffffffffffffffffffffffffffffff168152602001908152602001600020905081816001019080519060200190610dcd929190612349565b507fac6ec2f3cde22b84535f0bb70aa5a3d4e365af8847b387e4598b86913b19bab583604051610dfd9190613226565b60405180910390a1505050565b6000600760008773ffffffffffffffffffffffffffffffffffffffff1673ffffffffffffffffffffffffffffffffffffffff168152602001908152602001600020905084816000019080519060200190610e65929190612349565b5083816001019080519060200190610e7e929190612349565b5082816002018190555081816003019080519060200190610ea0929190612349565b507fcf7e2a697825010c856a92558aa0f2235689dee8af4d377c24b675fedab74db986604051610ed091906131f8565b60405180910390a1505050505050565b6001835110151515610f27576040517f08c379a0000000000000000000000000000000000000000000000000000000008152600401610f1e90613585565b60405180910390fd5b6001825110151515610f6e576040517f08c379a0000000000000000000000000000000000000000000000000000000008152600401610f6590613525565b60405180910390fd5b600081111515610fb3576040517f08c379a0000000000000000000000000000000000000000000000000000000008152600401610faa90613485565b60405180910390fd5b60a06040519081016040528060085481526020018481526020018381526020018281526020013373ffffffffffffffffffffffffffffffffffffffff16815250600080600854815260200190815260200160002060008201518160000155602082015181600101908051906020019061102d9291906123c9565b50604082015181600201908051906020019061104a9291906123c9565b506060820151816003015560808201518160040160006101000a81548173ffffffffffffffffffffffffffffffffffffffff021916908373ffffffffffffffffffffffffffffffffffffffff160217905550905050600160085490806001815401808255809150509060018203906000526020600020016000909192909190915055506008600081548092919060010191905055507f931ab3a76dd4c6dcc47b8c61f316716d89ceac393090a0b39688e61e555fca7160085460405161111091906135a5565b60405180910390a1505050565b600080600090505b60068054905081101561116a578260068281548110151561114257fe5b9060005260206000200154141561115d576001915050611170565b8080600101915050611125565b50600090505b919050565b606061117f612449565b600760008473ffffffffffffffffffffffffffffffffffffffff1673ffffffffffffffffffffffffffffffffffffffff16815260200190815260200160002060806040519081016040529081600082018054600181600116156101000203166002900480601f0160208091040260200160405190810160405280929190818152602001828054600181600116156101000203166002900480156112635780601f1061123857610100808354040283529160200191611263565b820191906000526020600020905b81548152906001019060200180831161124657829003601f168201915b50505050508152602001600182018054600181600116156101000203166002900480601f0160208091040260200160405190810160405280929190818152602001828054600181600116156101000203166002900480156113055780601f106112da57610100808354040283529160200191611305565b820191906000526020600020905b8154815290600101906020018083116112e857829003601f168201915b5050505050815260200160028201548152602001600382018054600181600116156101000203166002900480601f0160208091040260200160405190810160405280929190818152602001828054600181600116156101000203166002900480156113b15780601f10611386576101008083540402835291602001916113b1565b820191906000526020600020905b81548152906001019060200180831161139457829003601f168201915b50505050508152505090508060200151915050919050565b6060806060806060600380548060200260200160405190810160405280929190818152602001828054801561141d57602002820191906000526020600020905b815481526020019060010190808311611409575b50505050509050606081516040519080825280602002602001820160405280156114565781602001602082028038833980820191505090505b5090506060825160405190808252806020026020018201604052801561149057816020015b606081526020019060019003908161147b5790505b509050606083516040519080825280602002602001820160405280156114ca57816020015b60608152602001906001900390816114b55790505b509050606084516040519080825280602002602001820160405280156114ff5781602001602082028038833980820191505090505b50905060008090505b85518110156115c75761151a81610532565b829250819150888581518110151561152e57fe5b906020019060200201888681518110151561154557fe5b906020019060200201888781518110151561155c57fe5b906020019060200201888881518110151561157357fe5b9060200190602002018473ffffffffffffffffffffffffffffffffffffffff1673ffffffffffffffffffffffffffffffffffffffff1681525084905284905284815250505050508080600101915050611508565b50848383839850985098509850505050505090919293565b60008310151515611625576040517f08c379a000000000000000000000000000000000000000000000000000000000815260040161161c90613505565b60405180910390fd5b61162e8361111d565b15156117b5576080604051908101604052808481526020018381526020018281526020013373ffffffffffffffffffffffffffffffffffffffff1681525060046000600a5481526020019081526020016000206000820151816000015560208201518160010190805190602001906116a7929190612472565b5060408201518160020190805190602001906116c4929190612472565b5060608201518160030160006101000a81548173ffffffffffffffffffffffffffffffffffffffff021916908373ffffffffffffffffffffffffffffffffffffffff1602179055509050506005600a5490806001815401808255809150509060018203906000526020600020016000909192909190915055506006839080600181540180825580915050906001820390600052602060002001600090919290919091505550600a600081548092919060010191905055507f85df17fa01db593cbf895b0165756515b33fb56e9d3e9af14eb737541265b2366040516117a890613545565b60405180910390a1611802565b60006117c28484846121e3565b90508015611800577f85df17fa01db593cbf895b0165756515b33fb56e9d3e9af14eb737541265b2366040516117f790613545565b60405180910390a15b505b505050565b60038181548110151561181657fe5b906000526020600020016000915090505481565b60068181548110151561183957fe5b906000526020600020016000915090505481565b6000606080600080600854861115151561189c576040517f08c379a0000000000000000000000000000000000000000000000000000000008152600401611893906134a5565b60405180910390fd5b6118a46124d2565b60008088815260200190815260200160002060a0604051908101604052908160008201548152602001600182018054600181600116156101000203166002900480601f0160208091040260200160405190810160405280929190818152602001828054600181600116156101000203166002900480156119655780601f1061193a57610100808354040283529160200191611965565b820191906000526020600020905b81548152906001019060200180831161194857829003601f168201915b50505050508152602001600282018054600181600116156101000203166002900480601f016020809104026020016040519081016040528092919081815260200182805460018160011615610100020316600290048015611a075780601f106119dc57610100808354040283529160200191611a07565b820191906000526020600020905b8154815290600101906020018083116119ea57829003601f168201915b50505050508152602001600382015481526020016004820160009054906101000a900473ffffffffffffffffffffffffffffffffffffffff1673ffffffffffffffffffffffffffffffffffffffff1673ffffffffffffffffffffffffffffffffffffffff168152505090508060000151816020015182604001516000808b815260200190815260200160002060040160009054906101000a900473ffffffffffffffffffffffffffffffffffffffff168460600151839350829250955095509550955095505091939590929450565b60608060006060611ae5612449565b600760003373ffffffffffffffffffffffffffffffffffffffff1673ffffffffffffffffffffffffffffffffffffffff16815260200190815260200160002060806040519081016040529081600082018054600181600116156101000203166002900480601f016020809104026020016040519081016040528092919081815260200182805460018160011615610100020316600290048015611bc95780601f10611b9e57610100808354040283529160200191611bc9565b820191906000526020600020905b815481529060010190602001808311611bac57829003601f168201915b50505050508152602001600182018054600181600116156101000203166002900480601f016020809104026020016040519081016040528092919081815260200182805460018160011615610100020316600290048015611c6b5780601f10611c4057610100808354040283529160200191611c6b565b820191906000526020600020905b815481529060010190602001808311611c4e57829003601f168201915b5050505050815260200160028201548152602001600382018054600181600116156101000203166002900480601f016020809104026020016040519081016040528092919081815260200182805460018160011615610100020316600290048015611d175780601f10611cec57610100808354040283529160200191611d17565b820191906000526020600020905b815481529060010190602001808311611cfa57829003601f168201915b5050505050815250509050806000015181602001518260400151836060015183935082925080905094509450945094505090919293565b600181815481101515611d5d57fe5b906000526020600020016000915090505481565b60006060806000600a548511151515611dbf576040517f08c379a0000000000000000000000000000000000000000000000000000000008152600401611db690613565565b60405180910390fd5b611dc7612518565b60046000878152602001908152602001600020608060405190810160405290816000820154815260200160018201805480602002602001604051908101604052809291908181526020016000905b82821015611ed1578382906000526020600020018054600181600116156101000203166002900480601f016020809104026020016040519081016040528092919081815260200182805460018160011615610100020316600290048015611ebd5780601f10611e9257610100808354040283529160200191611ebd565b820191906000526020600020905b815481529060010190602001808311611ea057829003601f168201915b505050505081526020019060010190611e15565b50505050815260200160028201805480602002602001604051908101604052809291908181526020016000905b82821015611fba578382906000526020600020018054600181600116156101000203166002900480601f016020809104026020016040519081016040528092919081815260200182805460018160011615610100020316600290048015611fa65780601f10611f7b57610100808354040283529160200191611fa6565b820191906000526020600020905b815481529060010190602001808311611f8957829003601f168201915b505050505081526020019060010190611efe565b5050505081526020016003820160009054906101000a900473ffffffffffffffffffffffffffffffffffffffff1673ffffffffffffffffffffffffffffffffffffffff1673ffffffffffffffffffffffffffffffffffffffff1681525050905080600001518160200151826040015183606001518292508191509450945094509450509193509193565b600181511015151561208b576040517f08c379a0000000000000000000000000000000000000000000000000000000008152600401612082906134e5565b60405180910390fd5b60806040519081016040528060095481526020018381526020018281526020013373ffffffffffffffffffffffffffffffffffffffff16815250600260006009548152602001908152602001600020600082015181600001556020820151816001019080519060200190612100929190612557565b50604082015181600201908051906020019061211d9291906123c9565b5060608201518160030160006101000a81548173ffffffffffffffffffffffffffffffffffffffff021916908373ffffffffffffffffffffffffffffffffffffffff160217905550905050600360095490806001815401808255809150509060018203906000526020600020016000909192909190915055506009600081548092919060010191905055507f4cc60a5ec8fb5bfb3ec397505a58e8cea4d91a7e74b9e01611588ad65c20bbe2826040516121d791906132b5565b60405180910390a15050565b600080600580549050905060008090505b818110156122fc5785600460008381526020019081526020016000206000015414156122ef5760006004600083815260200190815260200160002090508060010186600081518110151561224457fe5b906020019060200201519080600181540180825580915050906001820390600052602060002001600090919290919091509080519060200190612288929190612349565b50508060020185600081518110151561229d57fe5b9060200190602002015190806001815401808255809150509060018203906000526020600020016000909192909190915090805190602001906122e1929190612349565b505060019350505050612303565b80806001019150506121f4565b5060009150505b9392505050565b608060405190810160405280600081526020016060815260200160608152602001600073ffffffffffffffffffffffffffffffffffffffff1681525090565b828054600181600116156101000203166002900490600052602060002090601f016020900481019282601f1061238a57805160ff19168380011785556123b8565b828001600101855582156123b8579182015b828111156123b757825182559160200191906001019061239c565b5b5090506123c591906125a4565b5090565b828054600181600116156101000203166002900490600052602060002090601f016020900481019282601f1061240a57805160ff1916838001178555612438565b82800160010185558215612438579182015b8281111561243757825182559160200191906001019061241c565b5b50905061244591906125a4565b5090565b608060405190810160405280606081526020016060815260200160008152602001606081525090565b8280548282559060005260206000209081019282156124c1579160200282015b828111156124c05782518290805190602001906124b09291906123c9565b5091602001919060010190612492565b5b5090506124ce91906125c9565b5090565b60a06040519081016040528060008152602001606081526020016060815260200160008152602001600073ffffffffffffffffffffffffffffffffffffffff1681525090565b608060405190810160405280600081526020016060815260200160608152602001600073ffffffffffffffffffffffffffffffffffffffff1681525090565b828054828255906000526020600020908101928215612593579160200282015b82811115612592578251825591602001919060010190612577565b5b5090506125a091906125a4565b5090565b6125c691905b808211156125c25760008160009055506001016125aa565b5090565b90565b6125f291905b808211156125ee57600081816125e591906125f5565b506001016125cf565b5090565b90565b50805460018160011615610100020316600290046000825580601f1061261b575061263a565b601f01602090049060005260206000209081019061263991906125a4565b5b50565b6000612649823561392b565b905092915050565b600082601f830112151561266457600080fd5b813561267761267282613722565b6136f5565b9150818183526020840193506020810190508360005b838110156126bd57813586016126a3888261274c565b84526020840193506020830192505060018101905061268d565b5050505092915050565b600082601f83011215156126da57600080fd5b81356126ed6126e88261374a565b6136f5565b9150818183526020840193506020810190508385602084028201111561271257600080fd5b60005b83811015612742578161272888826127f8565b845260208401935060208301925050600181019050612715565b5050505092915050565b600082601f830112151561275f57600080fd5b813561277261276d82613772565b6136f5565b9150808252602083016020830185838301111561278e57600080fd5b612799838284613947565b50505092915050565b600082601f83011215156127b557600080fd5b81356127c86127c38261379e565b6136f5565b915080825260208301602083018583830111156127e457600080fd5b6127ef838284613947565b50505092915050565b6000612804823561393d565b905092915050565b60006020828403121561281e57600080fd5b600061282c8482850161263d565b91505092915050565b6000806040838503121561284857600080fd5b60006128568582860161263d565b925050602083013567ffffffffffffffff81111561287357600080fd5b61287f858286016127a2565b9150509250929050565b600080600080600060a086880312156128a157600080fd5b60006128af8882890161263d565b955050602086013567ffffffffffffffff8111156128cc57600080fd5b6128d8888289016127a2565b945050604086013567ffffffffffffffff8111156128f557600080fd5b612901888289016127a2565b9350506060612912888289016127f8565b925050608086013567ffffffffffffffff81111561292f57600080fd5b61293b888289016127a2565b9150509295509295909350565b6000806040838503121561295b57600080fd5b600083013567ffffffffffffffff81111561297557600080fd5b612981858286016126c7565b925050602083013567ffffffffffffffff81111561299e57600080fd5b6129aa858286016127a2565b9150509250929050565b6000806000606084860312156129c957600080fd5b600084013567ffffffffffffffff8111156129e357600080fd5b6129ef868287016127a2565b935050602084013567ffffffffffffffff811115612a0c57600080fd5b612a18868287016127a2565b9250506040612a29868287016127f8565b9150509250925092565b600060208284031215612a4557600080fd5b6000612a53848285016127f8565b91505092915050565b600080600060608486031215612a7157600080fd5b6000612a7f868287016127f8565b935050602084013567ffffffffffffffff811115612a9c57600080fd5b612aa886828701612651565b925050604084013567ffffffffffffffff811115612ac557600080fd5b612ad186828701612651565b9150509250925092565b60008060008060808587031215612af157600080fd5b6000612aff878288016127f8565b945050602085013567ffffffffffffffff811115612b1c57600080fd5b612b28878288016127a2565b935050604085013567ffffffffffffffff811115612b4557600080fd5b612b51878288016127a2565b9250506060612b62878288016127f8565b91505092959194509250565b612b77816138e3565b82525050565b6000612b8882613825565b808452602084019350612b9a836137ca565b60005b82811015612bcc57612bb0868351612b6e565b612bb982613888565b9150602086019550600181019050612b9d565b50849250505092915050565b6000612be382613830565b80845260208401935083602082028501612bfc856137d7565b60005b84811015612c35578383038852612c17838351612d22565b9250612c2282613895565b9150602088019750600181019050612bff565b508196508694505050505092915050565b6000612c518261383b565b80845260208401935083602082028501612c6a856137e4565b60005b84811015612ca3578383038852612c85838351612deb565b9250612c90826138a2565b9150602088019750600181019050612c6d565b508196508694505050505092915050565b6000612cbf82613851565b80845260208401935083602082028501612cd8856137fe565b60005b84811015612d11578383038852612cf3838351612e8b565b9250612cfe826138bc565b9150602088019750600181019050612cdb565b508196508694505050505092915050565b6000612d2d82613846565b80845260208401935083602082028501612d46856137f1565b60005b84811015612d7f578383038852612d61838351612e8b565b9250612d6c826138af565b9150602088019750600181019050612d49565b508196508694505050505092915050565b6000612d9b82613867565b808452602084019350612dad83613818565b60005b82811015612ddf57612dc38683516131e9565b612dcc826138d6565b9150602086019550600181019050612db0565b50849250505092915050565b6000612df68261385c565b808452602084019350612e088361380b565b60005b82811015612e3a57612e1e8683516131e9565b612e27826138c9565b9150602086019550600181019050612e0b565b50849250505092915050565b612e4f816138f5565b82525050565b6000612e608261387d565b808452612e74816020860160208601613956565b612e7d81613989565b602085010191505092915050565b6000612e9682613872565b808452612eaa816020860160208601613956565b612eb381613989565b602085010191505092915050565b6000602282527f4e6577207072696365206d75737420626520686967686572207468616e207a6560208301527f726f0000000000000000000000000000000000000000000000000000000000006040830152606082019050919050565b6000601f82527f56656963756c6f20617475616c697a61646f20636f6d20737563636573736f006020830152604082019050919050565b6000600c82527f496e76616c6964206e616d6500000000000000000000000000000000000000006020830152604082019050919050565b6000601e82527f5072696365206d75737420626520686967686572207468616e207a65726f00006020830152604082019050919050565b6000601682527f56656963756c6f20646f6573206e6f74206578697374000000000000000000006020830152604082019050919050565b6000601c82527f56656963756c6f20737461676520646f6573206e6f74206578697374000000006020830152604082019050919050565b6000600c82527f4e616d6520696e76616c696400000000000000000000000000000000000000006020830152604082019050919050565b6000601182527f696e76616c69642076656963756c6f49640000000000000000000000000000006020830152604082019050919050565b6000600f82527f506c61636120696e76c3a16c69646100000000000000000000000000000000006020830152604082019050919050565b6000600e82527f486973746f7279207361766564210000000000000000000000000000000000006020830152604082019050919050565b6000601f82527f436c69656e746520617475616c697a61646f20636f6d20737563636573736f006020830152604082019050919050565b6000601682527f486973746f727920646f6573206e6f74206578697374000000000000000000006020830152604082019050919050565b6000601582527f446573637269c3a7c3a36f20696e76c3a16c69646100000000000000000000006020830152604082019050919050565b6000601182527f436f6e74612072656769737472616461210000000000000000000000000000006020830152604082019050919050565b6131f281613921565b82525050565b600060408201905061320d6000830184612b6e565b818103602083015261321e8161310d565b905092915050565b600060408201905061323b6000830184612b6e565b818103602083015261324c816131b2565b905092915050565b6000608082019050818103600083015261326e8187612cb4565b905081810360208301526132828186612bd8565b905081810360408301526132968185612bd8565b905081810360608301526132aa8184612b7d565b905095945050505050565b600060208201905081810360008301526132cf8184612d90565b905092915050565b600060808201905081810360008301526132f18187612d90565b905081810360208301526133058186612c46565b905081810360408301526133198185612cb4565b9050818103606083015261332d8184612b7d565b905095945050505050565b600060a08201905081810360008301526133528188612d90565b905081810360208301526133668187612cb4565b9050818103604083015261337a8186612cb4565b9050818103606083015261338e8185612b7d565b905081810360808301526133a28184612d90565b90509695505050505050565b60006020820190506133c36000830184612e46565b92915050565b600060208201905081810360008301526133e38184612e55565b905092915050565b600060808201905081810360008301526134058187612e55565b905081810360208301526134198186612e55565b905061342860408301856131e9565b818103606083015261343a8184612e55565b905095945050505050565b6000602082019050818103600083015261345e81612ec1565b9050919050565b6000602082019050818103600083015261347e81612f55565b9050919050565b6000602082019050818103600083015261349e81612f8c565b9050919050565b600060208201905081810360008301526134be81612fc3565b9050919050565b600060208201905081810360008301526134de81612ffa565b9050919050565b600060208201905081810360008301526134fe81613031565b9050919050565b6000602082019050818103600083015261351e81613068565b9050919050565b6000602082019050818103600083015261353e8161309f565b9050919050565b6000602082019050818103600083015261355e816130d6565b9050919050565b6000602082019050818103600083015261357e81613144565b9050919050565b6000602082019050818103600083015261359e8161317b565b9050919050565b60006020820190506135ba60008301846131e9565b92915050565b60006080820190506135d560008301876131e9565b81810360208301526135e78186612cb4565b905081810360408301526135fb8185612cb4565b905061360a6060830184612b6e565b95945050505050565b600060808201905061362860008301876131e9565b818103602083015261363a8186612d90565b9050818103604083015261364e8185612e55565b905061365d6060830184612b6e565b95945050505050565b600060a08201905061367b60008301886131e9565b818103602083015261368d8187612e55565b905081810360408301526136a18186612e55565b90506136b06060830185612b6e565b6136bd60808301846131e9565b9695505050505050565b60006040820190506136dc60008301846131e9565b81810360208301526136ed81612f1e565b905092915050565b6000604051905081810181811067ffffffffffffffff8211171561371857600080fd5b8060405250919050565b600067ffffffffffffffff82111561373957600080fd5b602082029050602081019050919050565b600067ffffffffffffffff82111561376157600080fd5b602082029050602081019050919050565b600067ffffffffffffffff82111561378957600080fd5b601f19601f8301169050602081019050919050565b600067ffffffffffffffff8211156137b557600080fd5b601f19601f8301169050602081019050919050565b6000602082019050919050565b6000602082019050919050565b6000602082019050919050565b6000602082019050919050565b6000602082019050919050565b6000602082019050919050565b6000602082019050919050565b600081519050919050565b600081519050919050565b600081519050919050565b600081519050919050565b600081519050919050565b600081519050919050565b600081519050919050565b600081519050919050565b600081519050919050565b6000602082019050919050565b6000602082019050919050565b6000602082019050919050565b6000602082019050919050565b6000602082019050919050565b6000602082019050919050565b6000602082019050919050565b60006138ee82613901565b9050919050565b60008115159050919050565b600073ffffffffffffffffffffffffffffffffffffffff82169050919050565b6000819050919050565b600061393682613901565b9050919050565b6000819050919050565b82818337600083830152505050565b60005b83811015613974578082015181840152602081019050613959565b83811115613983576000848401525b50505050565b6000601f19601f830116905091905056fea265627a7a72305820633c3c0cb46850e4bc70298b1d35ebcec8a46ae987a65fe3a237c2a8bc729df26c6578706572696d656e74616cf50037",
  "source": "pragma solidity ^0.5.0;\npragma experimental ABIEncoderV2;\n\ncontract MyContract {\n  // evento para notificar o cliente que a conta foi atualizada\n  event userRegisted(address _addr, string newEmail);\n  // que o produto foi registrado\n  event veiculoRegistered(uint id);\n  // que a Etapa foi registrada\n  event StageRegistered(uint[]);\n  // que um histrico foi registrado\n  event historyRegistered(string _msg);\n  // que um produto foi atualizado\n  event veiculoUpdated(uint _veiculoId, string _msg);\n  event clienteUpdated(address _clienteAddr, string _msg);\n  // estrutura para manter dados do usurio\n  struct User {\n    string nome;\n    string email;\n    uint cpf;\n    string endereco;\n  }\n  // estrutura para registar o estagio de um produto\n  struct Stage {\n      uint id;\n      uint[] veiculos;\n      string desc;\n      address owner;\n  }\n  // estrutura para manter dados do veiculo\n  struct Veiculo {\n      uint id;\n      string desc;\n      string placa;\n      uint price;\n      address owner;\n  }\n  // estrutura para manter dados de um histrico\n  struct History {\n      uint veiculoId;\n      string[] stageDesc;\n      string[] dates;\n      address veiculoOwner;\n  }\n\n  // mapeia um id a um veiculo\n  mapping (uint => Veiculo) veiculos;\n  uint[] public veiculosIds;\n  // mapeia um id a uma etapa\n  mapping(uint => Stage) stages;\n  uint[] public stagesIds;\n\n  mapping (uint => History) histories;\n  uint[] public historiesIds;\n  uint[] public veiculosInHistory;\n  // mapeia endereo do usurio a sua estrutura\n  mapping (address => User) users;\n  // state variables\n  uint256 private lastId = 0;\n  uint256 private stagesId = 0;\n  uint256 private historyId = 0;\n\n  // funo para cadastrar conta do usurio\n  function setUser(address _addr, string memory _email) public {\n      User storage user = users[_addr];\n      user.email = _email;\n      // notifica o cliente atravs do evento\n      emit userRegisted(_addr, \"Conta registrada!\");\n  }\n  // funo para resgatar dados do usurio\n  function getUser(address _addr) public view returns(string memory) {\n      User memory user = users[_addr];\n      return (user.email);\n  }\n  // funo para cadastrar um veiculo\n  function addVeiculo(string memory _desc, string memory _placa, uint _price) public {\n    require(bytes(_desc).length >= 1, \"Descrio invlida\");\n    require(bytes(_placa).length >= 1, \"Placa invlida\");\n    require(_price > 0, \"Price must be higher than zero\");\n\n    veiculos[lastId] = Veiculo(lastId, _desc, _placa, _price, msg.sender);\n    veiculosIds.push(lastId);\n    lastId++;\n    emit veiculoRegistered(lastId);\n  }\n  function updateVeiculo(uint _veiculoId, string memory _newDesc, string memory _newPlaca, uint _newPrice) public {\n      require(bytes(_newDesc).length >= 1, \"Invalid name\");\n      require(_newPrice > 0, \"New price must be higher than zero\");\n\n      Veiculo storage veic = veiculos[_veiculoId];\n      // require(veic.owner == msg.sender, \"Only the owner can update the veiculo\");\n      veic.desc = _newDesc;\n      veic.placa = _newPlaca;\n      veic.price = _newPrice;\n      emit veiculoUpdated(_veiculoId, \"Veiculo atualizado com successo\");\n  }\n  function updateCliente(address _clienteAddr, string memory _newNome, string memory _newEmail, uint _newCpf, string memory _newEndereco) public {\n      User storage cliente = users[_clienteAddr];\n//      require(veic.owner == msg.sender, \"Only the owner can update the veiculo\");\n      cliente.nome = _newNome;\n      cliente.email = _newEmail;\n      cliente.cpf = _newCpf;\n      cliente.endereco = _newEndereco;\n      emit clienteUpdated(_clienteAddr, \"Cliente atualizado com successo\");\n  }\n  // funo para resgatar info de um veiculo\n  function veiculoInfo(uint _id) public view returns(uint, string memory, string memory, address, uint) {\n    require(_id <= lastId, \"Veiculo does not exist\");\n    Veiculo memory veiculo = veiculos[_id];\n    return (\n      veiculo.id,\n      veiculo.desc,\n      veiculo.placa,\n      veiculos[_id].owner,\n      veiculo.price\n    );\n  }\n  // funo para resgatar info de um cliente\n  function clienteInfo() public view returns(string memory, string memory, uint, string memory) {\n    User memory cliente = users[msg.sender];\n    return (\n      cliente.nome,\n      cliente.email,\n      cliente.cpf,\n      cliente.endereco\n    );\n  }\n  // funo que retorna todos os produtos de um usurio\n  function getVeiculos() public view returns(uint[] memory, string[] memory, string[] memory, address[] memory, uint[] memory) {\n    uint[] memory ids = veiculosIds;\n    uint[] memory idsVeiculos = new uint[](ids.length);\n    string[] memory descs = new string[](ids.length);\n    string[] memory placas = new string[](ids.length);\n    address[] memory owners = new address[](ids.length);\n    uint[] memory prices = new uint[](ids.length);\n    for (uint i = 0; i < ids.length; i++) {\n      (idsVeiculos[i], descs[i], placas[i], owners[i], prices[i]) = veiculoInfo(i);\n    }\n    return (idsVeiculos, descs, placas, owners, prices);\n  }\n\n  function isVeiculoInHistory(uint _id) public view returns (bool) {\n      for (uint i = 0; i < veiculosInHistory.length; i++) {\n          if (veiculosInHistory[i] == _id)\n              return true;\n      }\n      return false;\n  }\n\n  // funo para adicionar o histrico de um produto\n  function addNewHistory(uint _veiculoId, string[] memory _stageDesc, string[] memory _dates) public {\n      require(_veiculoId >= 0, \"invalid veiculoId\");\n      if (!isVeiculoInHistory(_veiculoId)) {\n          histories[historyId] = History(_veiculoId, _stageDesc, _dates, msg.sender);\n          historiesIds.push(historyId);\n          veiculosInHistory.push(_veiculoId);\n          historyId++;\n          emit historyRegistered(\"History saved!\");\n      } else {\n          bool added = addToHistory(_veiculoId, _stageDesc, _dates);\n          if (added) {\n              emit historyRegistered(\"History saved!\");\n          }\n      }\n  }\n\n  function addToHistory(uint _veiculoId, string[] memory _stageDesc, string[] memory _dates) public returns (bool) {\n      uint size = historiesIds.length;\n      for (uint i = 0; i < size; i++) {\n          if (histories[i].veiculoId == _veiculoId) {\n              History storage his = histories[i];\n              his.stageDesc.push(_stageDesc[0]);\n              his.dates.push(_dates[0]);\n              return true;\n          }\n      }\n      return false;\n  }\n\n  function HistoryInfo(uint _id) public view returns (uint, string[] memory, string[] memory, address) {\n      require(_id <= historyId, \"History does not exist\");\n\n      History memory his = histories[_id];\n      return (\n          his.veiculoId,\n          his.stageDesc,\n          his.dates,\n          his.veiculoOwner\n      );\n  }\n\n  function getHistories() public view returns (string[] memory, string[][] memory, string[][] memory, address[] memory) {\n      uint[] memory ids = historiesIds;\n\n      uint[] memory veicsIds = new uint[](ids.length);\n      string[] memory veiculosNames = new string[](ids.length);\n      string[][] memory stageDesc = new string[][](ids.length);\n      string[][] memory dates = new string[][](ids.length);\n      address[] memory addrs = new address[](ids.length);\n\n      for (uint i = 0; i < ids.length; i++) {\n          (veicsIds[i], stageDesc[i], dates[i], addrs[i]) = HistoryInfo(i);\n          (, veiculosNames[i], , ,) = veiculoInfo(veicsIds[i]);\n      }\n      return (veiculosNames, stageDesc, dates, addrs);\n  }\n\n  // funo para adicionar produtos  um estgio\n  function addToStage(uint[] memory _veiculosIds, string memory _stageDesc) public {\n    require(bytes(_stageDesc).length >= 1, \"Name invalid\");\n//    require(_veiculosIds.length > 0, \"No itens selecteds\");\n    stages[stagesId] = Stage(stagesId, _veiculosIds, _stageDesc, msg.sender);\n    stagesIds.push(stagesId);\n    stagesId++;\n    emit StageRegistered(_veiculosIds);\n  }\n\n  // funo para resgatar info de um estgio\n  function stageInfo(uint _id) public view returns (uint, uint[] memory, string memory, address) {\n      require(_id <= stagesId, \"Veiculo stage does not exist\");\n      Stage memory stage = stages[_id];\n      return (stage.id, stage.veiculos, stage.desc, stage.owner);\n  }\n\n  // funo que retorna todos os estagios\n  function getStages() public view returns (uint[] memory, uint[][] memory, string[] memory, address[] memory) {\n      uint[] memory ids = stagesIds;\n      uint[] memory idsStages = new uint[](ids.length);\n      uint[][] memory veics = new uint[][](ids.length);\n      string[] memory veics_desc = new string[](ids.length);\n      address[] memory owners = new address[](ids.length);\n      for(uint i = 0; i < ids.length; i++) {\n          (idsStages[i], veics[i], veics_desc[i], owners[i]) = stageInfo(i);\n      }\n      return (ids, veics, veics_desc, owners);\n  }\n}\n",
  "sourcePath": "/var/rcaldas/iesb/dapp/contracts/MyContract.sol",
  "compiler": {
    "name": "solc",
    "version": "0.5.0+commit.1d4f565a.Emscripten.clang"
  },
  "schemaVersion": "3.0.23",
  "updatedAt": "2020-03-02T18:38:21.081Z",
  "networkType": "ethereum",
  "devdoc": {
    "methods": {}
  },
  "userdoc": {
    "methods": {}
  }
}